:10000000C0AE0020D91E0000B10200008502000031
:1000100085020000850200008502000085020000C4
:100020000000000000000000000000008502000049
:10003000850200000000000085020000950300001A
:1000400079150000D1190000A5030000B3030000DA
:10005000000000000000000000000000311A000055
:10006000D5190000000000000000000000000000A2
:100070000000000000000000000000000000000080
:100080000000000000000000000000000000000070
:100090000000000000000000000000000000000060
:1000A0000000000000000000000000000000000050
:1000B0000000000000000000000000000000000040
:1000C0000000000000000000000000000000000030
:1000D0000000000000000000000000000000000020
:1000E0000000000000000000000000000000000010
:1000F0000000000000000000000000000000000000
:1001000000000000000000000000000000000000EF
:1001100000000000000000000000000000000000DF
:1001200000000000000000000000000000000000CF
:1001300000000000000000000000000000000000BF
:1001400000000000000000000000000000000000AF
:10015000000000000000000000000000000000009F
:10016000000000000000000000000000000000008F
:10017000000000000000000000000000000000007F
:10018000000000000000000000000000000000006F
:10019000000000000000000000000000000000005F
:1001A000000000000000000000000000000000004F
:1001B000000000000000000000000000000000003F
:1001C000FFFFFFFFFFFFFFFFFFFFFFFFFFFFFFFF3F
:1001D000FFFFFFFFFFFFFFFFFFFFFFFFFFFFFFFF2F
:1001E000FFFFFFFFFFFFFFFFFFFFFFFFFFFFFFFF1F
:1001F000FFFFFFFFFFFFFFFFFFFFFFFFFFFFFFFF0F
:100200000A4BCAB253F8300011F07F030BD00849F3
:10021000D20901EB0211194491F878301BB1373340
:1002200000EB430070476030704700BF902800002B
:10023000280500200122014B1A60704700E100E010
:100240000122044BC3F88020BFF34F8FBFF36F8FA1
:10025000704700BF00E100E010B50446FFF7D0FF93
:10026000014670B12046FFF7EBFF0B8803F0030354
:1002700043F002030B8002230B80BDE81040FFF720
:10028000D9BF10BD00BE7047064B93F826101A6AFE
:10029000054BC2F3026253F82130D340034A136086
:1002A000704700BF00E00140E8040020080500207E
:1002B000034AB2F840319BB2A2F83031704700BF18
:1002C0000060004010B5EFF31081012383F3108824
:1002D0000F4A32F810309BB22BB132F81030013B8C
:1002E0009BB222F8103032F810309BB263B9094A41
:1002F000094CB2F8FE3334F810009BB243F42543A6
:1003000023EA0003A2F8FE3381F3108810BD00BF7A
:10031000E088002000E001408028000030B5EFF3C5
:100320001084012383F310880D4A32F810309BB2F9
:1003300063B90C490C4DB1F8FE3335F810509BB23F
:100340002B4343F425439BB2A1F8FE3332F810301F
:1003500001339BB222F8103084F3108830BD00BF07
:10036000E088002000E0014080280000EFF30380D7
:10037000103840B27047FFFF054BC03053F82020C3
:100380006FF3104243F8202053F82030704700BF2D
:1003900000600040024A136801331360704700BFD9
:1003A000BC8A002008B5FFF7E1FFBDE80840FFF771
:1003B000E3BFFFF7F7BF0A4492B291424FEA400011
:1003C00001D8824201DB121A92B210467047002017
:1003D0007047FFFF4B6902490B610121184700BFBD
:1003E000140500200346034A10780BB1FFF722BF23
:1003F000FFF726BFD00400200222024B5A800022C1
:100400001A717047C40600200022024B1A80FFF7C1
:10041000F3BF00BFC40600200020FFF7F5BF012096
:100420007047FFFF8B7970B5012B12D1CB79022B6E
:100430000FD1002318468D78CC79022C1AD1824234
:1004400009D84FF0E023D3F8F00D10F0010024D0CC
:1004500000BE002021E08C78AC42F2D1CE78DCB234
:10046000A642EED10C780133214420448C7980B22D
:10047000012CE1D04B78212BE3D1084B8A7809304D
:100480001A70B1F8053080B2402B06D94FF0E02346
:10049000D3F8F03DDB0700D500BE70BDC4060020D8
:1004A00000220B4B1A7170B99A78042A02D10322E8
:1004B0009A707047072A09D11A7812F0040F14BFF6
:1004C00006220822F4E70A22D8709A70704700BF0B
:1004D000C406002008B50378012B06D103490B8818
:1004E0001BB10020FFF7DCFF088008BD5888002002
:1004F00010B501F1080400F00F02D3B2092ACCBFF5
:100500003733303304F8013DA1424FEA1010F2D1E5
:1005100010BD08B50146FFF72FFFBFF35F8F012223
:1005200001F01F039A404B099B0003F1604303F560
:100530006143C3F880211A6008BDFFFF012243090F
:1005400000F01F0002FA00F0044A203342F82300B2
:10055000BFF34F8FBFF36F8F704700BF00E100E024
:1005600037B5C36B04460A466D468BB193E803006A
:1005700085E803001A70226C18465A60A26B9047F7
:10058000E36B1BB195E8030083E8030003B030BDC3
:100590002B46EFE74FF4964313B5019343680446A7
:1005A0001A7842B193F91100FFF7B3FF636893F92A
:1005B0001300FFF7AEFF4AF680230A4AA2F8843000
:1005C000B2F884309BB2802B02D1002002B010BD63
:1005D000019B1BB1019B013B0193F1E74FF4FA70C2
:1005E000F4E700BF00E07F4022F0010330B5034490
:1005F0005408984207D16FF0010303FB04220AB1AB
:1006000003780B7030BD30F8025B0D80F1E7F8B570
:10061000038944899BB2A4B28588A34236BFC4EB48
:10062000450CA3EB040C9C441FFA8CFC6545064664
:100630001ED80020074603460446944228BF1446AD
:100640003D19AF422BD1121B92B23AB1934228BF4F
:100650001346C218904227D123449CB231892246C6
:10066000B08889B2FFF7A7FE3081F8BD5B1B9BB253
:100670009D42FBD9A5420FD93068A34200EB030786
:1006800035BF0020EC1AE31AA3EB0C0335BF9CB274
:10069000A4B203469BB2D0E7641BA4B2EAE791F888
:1006A00000C007F801CBCCE70D7800F8015BD1E77B
:1006B0002DE9F041B0F808C043891FFA8CFC9BB2C9
:1006C00084889C4536BFC3EB4405ACEB0305654409
:1006D000ADB2AC420746164608D22546A4452CBF0B
:1006E000ACEB04030CEB04039BB243813DB92C46F5
:1006F000A846284612E0ACEB040C1FFA8CFC6445BB
:10070000F9D99C4225D9D7F800809C4508EB030015
:1007100022D82D1BE21A1D44ACB295B2B54228BFB7
:1007200035462A46FFF760FF721B92B242B19442EF
:1007300028BF144640462246FFF756FF2544ADB277
:1007400079892A46B88889B2FFF735FE7881BDE8F5
:10075000F0811B1B9BB2D4E74FF000084446DDE755
:100760002DE9F341164C0746E58825B9012025609F
:1007700002B0BDE8F081B0F85E802E4608F07F0838
:10078000454528BF46463EB1637A3246206807F1A8
:1007900014016BB1FFF78CFF464538BF4FF400439F
:1007A000A5EB06054FF0000038BF7B84E580DFE74E
:1007B0000190FFF719FF019830442060ECE700BF7B
:1007C000280500200C232DE9F3474B43264D044612
:1007D000EA18D7880E4627B90120EF5002B0BDE8CD
:1007E000F0878BB243F480620285A0F86430B0F8E1
:1007F0006CA01FFA8AFA238D03F00F039E42FAD1F0
:10080000638D9B04FCD55745B84628BFD046B8F148
:10081000000F0ED04FF00C0909FB06F905EB090398
:100820005B7A424655F8090004F118019BB1FFF7C5
:100830003FFFD0453CBF4FF4004363850023238531
:10084000208D10F00F00FBD10C2101FB0655A7EB0A
:100850000807EF80C2E70190FFF7C6FE0198404409
:1008600045F80900E5E700BF280500202DE9F0471D
:100870003C4E8A4606EBD01393F82840074614F006
:10088000010411464FEAD0190BD04FF0E023D3F802
:10089000F03DD90703D400242046BDE8F08700BE10
:1008A000F9E7314A92F8008093F82820404642F058
:1008B000010283F828202D4B53F83850FFF7C0FC75
:1008C0000DB900BEFEE7002F3AD04FF484632B84AD
:1008D0002B8C9A06FCD50022254B5A729980D98020
:1008E000002939D0C3F800A0002F31D0B5F860300E
:1008F000180403D5B5F85430190626D44FF0E02378
:10090000D3F8F03DDA0700D500BE4046FFF792FC71
:10091000002CC1D106EB090393F8282064F30002F0
:1009200083F8282093F8282064F3820283F8282093
:100930004FF0E023D3F8F03DDB07ACD500BEABE7CA
:100940002F842B8C9B06FCD4C5E72846FFF708FFB5
:100950000124A5F86040D8E7196005230124A5F813
:100960006030D2E754070020D00400209028000017
:1009700028050020002210F0800F11460CBF8020B7
:100980001046FFF773BFFFFF10B40346064C006824
:100990002246596803C20022C4E902225DF8044BD2
:1009A0001878FFF7E7BF00BF140500202DE9F041DC
:1009B00080460024164D174E174F2A78E3B29A420C
:1009C00010D23C220021154801F00BFE1022FF211D
:1009D000134801F006FEBDE8F0411422FF21114842
:1009E00001F0FFBD0CD93A6812EB43130BD14FF065
:1009F000E023D3F8F03DDB0700D500BEBDE8F08171
:100A00009B1A06EB43134046DB6898470134D4E752
:100A1000100500203C2700000C0500205407002092
:100A2000580700206807002070B5058903894289AE
:100A30009BB292B28688934236BFC2EB46029B1AA3
:100A40009B189BB29E420446ADB217D8C079C0092C
:100A500014D170BD9B1B9BB2B342FBD2E2882068CD
:100A6000C2F30E0202FB030001F0AEFD0122294693
:100A7000A088FFF7A0FC20810120EAE72B46EBE7E6
:100A800038B50546012D10461C464FEA811111D19B
:100A9000B1F5005F02D30024204638BDC1F50053F4
:100AA0009BB29C4228BF1C46224601F1006101F026
:100AB0008BFDF1E7002D0CBF4FF480354FF480150E
:100AC000064B1D60C5F500238B42E4D95B1A9C429E
:100AD00088BF9CB222462944E9E700BF10070020E6
:100AE00013B5124B9889D98993F90040421A92B2F2
:100AF000402A28BF4022002C0EDA884212D0996882
:100B00000B48019201F060FD80200949019A02B072
:100B1000BDE81040FFF7AABE88424FF0000003D1A5
:100B20000021F4E78020FBE70149F0E714050020ED
:100B30001407002070B50446164D00682E460B467B
:100B40006168AB6003C60021E981E1888A4228BF61
:100B50000A46AA81E18881B152B14BB94FF0E02237
:100B6000D2F8F02DD20701D4002070BD00BEFBE703
:100B7000FFF7B6FF28B10120F7E72078FFF7FAFE6C
:100B8000F8E74FF0E023D3F8F03DDB07ECD500BEEB
:100B9000EBE700BF1405002007B58DF800208DF8A5
:100BA00001301A0A1B0C8DF8033000238DF8022047
:100BB0008DF80410062269468DF80530FFF7BAFF5C
:100BC00003B05DF804FBFFFF2DE9F04F87B0A94BA0
:100BD00000201D682B689847A989EB8989B29BB2D0
:100BE0002889994236BFC3EB4002CA1A521894B200
:100BF0009CB1A04205D281422CBF091A09188BB2C0
:100C0000EB81984225D96A896968C2F30E0202FB1A
:100C1000031103A801F0D8FC0124E98922462889A0
:100C200089B2FFF7C8FB2B68E88101209847002CA8
:100C300037D09DF80D30013B072B00F25383DFE8DE
:100C400013F00B001900C403AB03B40326003003F8
:100C5000BD031B1A9BB2D4E79DF80C00FFF7A6FE5C
:100C600014220021844801F0BCFC9DF81020834B25
:100C70009A70ACE79DF80C00FFF798FE1422002153
:100C80007D4801F0AEFCFA227D4B1A609FE77D4A59
:100C900013784BB94FF0E023D3F8F03DD80700D5D7
:100CA00000BE07B0BDE8F08F1378013BDBB21370D4
:100CB000127802F0FF03002A89D1704CDFF8B88166
:100CC0002278C8F8103042F00102227094F82820EF
:100CD0009DF80C7063F3000284F8282094F8282013
:100CE00063F3820284F8282094F8292063F3000239
:100CF00084F8292094F8292063F3820284F82920BB
:100D00009DF8102002F06003602B07D14FF0E02324
:100D1000D3F8F03DDC0706D500BE04E0402B0DD132
:100D2000594BC8F8103000219DF80C00FFF794FAD9
:100D300080219DF80C00FFF78FFA48E702F01F02B0
:100D4000012A00F0CC81022A00F0F881002ADDD1CE
:100D5000202B16D19DF814300F2BE4D84B4A234496
:100D60001B791278934209D2494A116811EB431159
:100D7000D9D004AA3846FFF72DFB40E1D3D145492D
:100D8000F7E7002BC2D19DF81130092BBED801A284
:100D900052F823F0BF100000AD1000000D0D000050
:100DA000991000000D0D0000BD0D0000C30F0000E4
:100DB0000D0D0000D70D0000E10D000006AB13E99A
:100DC00003000023C8E902332378C8E9000143F097
:100DD00002032370FBE6637801228DF80A3078E184
:100DE0009DF812806378984500F0D2806378EBB16B
:100DF0000025294B294E53F8371086F898500B8E52
:100E0000384665F34D330B86FFF71AFA33464FF039
:100E10000A0CB64601F1600BBCF1010C42D1384618
:100E2000FFF708FAA578FFF7C1FDA57084F80180E7
:100E3000B8F1000F00F0C2804FF001082378184984
:100E400023F03003DFF8449023704B78042B60D0FC
:100E50004FF0E023D3F8F03DDF0700F1AD804FF015
:100E6000E023D3F8F03DDE0700D500BE0023637019
:100E700059E700BF90070020140500205407002008
:100E8000D404002054080020CF03000010050020E7
:100E90000C0500203C2700009028000028050020B9
:100EA0007D27000093F8742022B34FF0010A02F06E
:100EB0007F09D20910010EEB02124A4492F8782001
:100EC000CE8E0AFA02FAB6B226EA0A06CE869AB19F
:100ED00002F1370601EB4606358096B2A1F8646050
:100EE0000C2606FB02E270448144A1F8685015729A
:100EF00089F878500C3B8FE75E46EDE743780B2B83
:100F000003BF037890F80380C0184FF00108014632
:100F10009BE70026B44BDFF800A3A3EB010B1FFAFD
:100F20008BFB99F80030F5B2AB4291D310D9AF4B9F
:100F30001B6813EB45138BD05A4638461B6900914A
:100F400098470828009935D9834533D300220DE00E
:100F5000EB1A0AEB4313EFE78E780132334454FA6D
:100F600083F31E79FF2E7FF473AF1D71D3B29845C2
:100F7000F2D8084488420FD899F80030AB42FFF409
:100F800067AF994B9842B9D34FF47A72984B1A6075
:100F900004A8FFF7F9FC1AE64B78052B07D18A78ED
:100FA00002F07F0304EB430303EBD2131D750B78B0
:100FB0001944DFE70136B4E700BE50E7FA228C4B54
:100FC000E5E7BDF812301A0A511E06293FF6ABAE0E
:100FD00001A050F821F000BFF50F0000071000003D
:100FE00013100000270D0000270D0000270D000042
:100FF0000710000012227F4904A8FFF79BFD00287C
:101000007FF4E5AD8FE6022A7FF48DAE7A494A88F7
:10101000F2E713F0FF030ED102227849784801F07D
:10102000D3FA01204000821C764942F440730B80C1
:1010300002F0FE02E0E7052B3FF675AE724A734CF4
:1010400052F823602378BBB9714D2146D5F8900042
:10105000FFF74EFAD5F8940004F10801FFF748FABB
:10106000D5F8980004F11001FFF742FAD5F89C007A
:1010700004F11801FFF73CFA304601F0BAFA0023F8
:101080006049C0B2DAB2824203F10103CAD2541CF1
:10109000B25C21F81420F5E7BDF81230012B7FF483
:1010A00042AE237843F00803237071E7BDF8123095
:1010B000012B7FF438AE23786FF3C303F4E7237872
:1010C000C3F340129B0803F0020313430222ADF85E
:1010D0000A300DF10A0104A8FFF72CFD77E59DF811
:1010E00014300F2B3FF61FAE4A4A23441B79127867
:1010F00093421FD23D4A116811EB43113FF413AEE6
:10110000384604AAFFF766F900287FF460AD9DF821
:10111000103013F060037FF406AE9DF81120A2F1A9
:101120000A0101293FF6FFAD0A2AC8F810307FF402
:101130002FAF51E67FF4F7AD3749E1E79DF8149002
:1011400009F07F02092A3FF6E1AD3249550004EB70
:10115000420202EBD912127D09784FEAD91A8A426B
:1011600014D222490E6806EB4216BBB99DF8113025
:1011700003F0FD02012A15D0002B7FF4C7AD2C44EB
:10118000A2449AF82830C3F340039FE740F021813E
:10119000214E002BEAD0314604AAEBE5002E3FF4A5
:1011A000C2ADF8E7BDF81220002A58D11B4A012B26
:1011B00092F800B064D1494658460193FFF720F8F1
:1011C000014600283DD0164A584652F83B2000926E
:1011D000FFF736F8DDE900234FF480700880BAF19C
:1011E000000F1FD00B8029E0982700000C0500207D
:1011F000D40400209827000074270000382700003E
:10120000C6050020C4050020982800006C8A002034
:1012100000810001100500203C270000D0040020C0
:10122000902800006D48484490F87800A2F86400C7
:10123000B2F86820C2F38132012AD3D15846FEF7B2
:10124000F9FF2544AA449AF828306FF341038AF83D
:1012500028309AF828306FF300038AF82830002EDF
:101260003FF4B5AC3146384604AAFFF7B3F8002383
:10127000C8F8103094F82930DD073FF5A8AC87E6B0
:101280002544AA4449465846FEF7E6FF9AF8283016
:1012900043F002038AF828309AF8283043F001031B
:1012A000DBE79DF810104E4B01F07F0003EB40038D
:1012B00003EBD11393F82820CF096FF3000283F8D2
:1012C000282093F828206FF3820283F82820002832
:1012D0004BD1444C9DF80C602378059DB7EBD31F90
:1012E00012D045B14FF0E023D3F8F03DDB077FF596
:1012F0006EAC00BE6BE42369002B3FF468AC224661
:1013000003213046984762E494F90030002B07DB54
:10131000A06800283FF45BAC2A46334901F054F939
:10132000A268E3892A442B44A260E2889BB29A42D5
:10133000E38101D03F2D15D8236933B92078FFF719
:1013400019FB00287FF443ACCCE702213046254A44
:10135000984701460028F1D13046FEF77DFF8021F5
:101360003046E8E4FFF7BCFBEBE71A7D1F4B1B7828
:101370009A420DD21E4B1B6813EB42133FF48AAC0A
:101380009C699DF81120059B9DF80C00A0471EE468
:101390007FF480AC174BF3E7114B1B78D9077FF52F
:1013A00016AC40F6C412144B6FE40D4B1B78DA07F1
:1013B0007FF50DAC4FF47A720F4B66E4049B002B63
:1013C0003FF405AC0598984701E4054BDB78FFF73F
:1013D000FEBB002B7FF4A7AC0026C7E62805002043
:1013E00054070020140500201407002010050020D9
:1013F0000C0500203C270000D404002008B50D4C4B
:101400000D4E2568327823685B1B632B0CD9BFF324
:101410004F8F0A490A4BCA6802F4E0621343CB605B
:10142000BFF34F8F00BFFDE7FF2AECD0FFF7CCFBE7
:10143000E8E700BFBC8A0020D004002000ED00E0F7
:101440000400FA052DE9FF4143780446023B042BD2
:1014500013D8DFE803F0037A161E80000021404B0A
:101460001A786FF300021A701A786FF341021A703B
:1014700059701A7861F382021A703A4B2146186843
:1014800051E0374B1A78D60758D51A7842F0040243
:10149000F2E7334A1378DD0750D513786FF38203F0
:1014A0001370EAE74DD9D8F8002012EB431304D0AB
:1014B000DB6913B161682078984701353278EBB267
:1014C0009A42EFD2264D2B7858071BD52B7801A9CD
:1014D0006FF382032B700023CDE90133039323784C
:1014E0008DF8043005238DF805301E4B1868043044
:1014F000FFF79AFA30B94FF0E023D3F8F03DD9075F
:1015000000D500BEEB78DA0718D5002301930393CA
:10151000237801A98DF8043003238DF80530636822
:101520000293104B18680430FFF77EFA30B94FF081
:10153000E023D3F8F03DDB0700D500BE04B0BDE8E2
:10154000F0819B1A07EB4313B2E70025064E074FC5
:10155000DFF82080B2E7064A13780133DBB29FE759
:101560005407002090070020100500203C270000B1
:10157000540800200C0500202DE9F04F89B0FEF73B
:10158000F5FEFEF7F9FEB04BB3F84010CA4362F423
:1015900078428CB292B20904A3F840200CD5B3F87B
:1015A000402012F0800FC2F3C0111A8814BF42F01D
:1015B000100261F304121A80620412D50023CDE9EF
:1015C00005330793052305A88DF81530FFF73AFF7B
:1015D0009E4B93F8981021B99B4B1A8E61F34D32B4
:1015E0001A86A30419D5984D2B8E9F0415D5002279
:1015F000B5F84C30059207920322C3F30A0305A8FD
:101600008DF815200693FFF71DFF904B93F8982057
:101610001AB92B8E62F34D332B86E60407D504F0FE
:101620007003202B00F0DC805ED8102B7AD02005D0
:101630002DD5E10740F1F380834BB3F8402012072A
:1016400025D54FF480425A84B3F8542003A9ADF84D
:101650000C20B3F8562006A8ADF80E20B3F8582099
:10166000ADF81020B3F85A20ADF812204FF6F772FB
:10167000A3F840200023CDE9053307930623082271
:101680008DF8153000F0A0FF05A8FFF7DBFE670519
:1016900015D500226C48B0F84A30A0F84A20DE0781
:1016A0000DD5FFF75DF850B14FF4E0658022674B30
:1016B00005A89B88CDE905520793FFF7C3FEE00517
:1016C0000FD5614B614CDA8EB3F84660DFF88CA120
:1016D000B6B21640F24392B2A3F84620002E40F074
:1016E000BF8009B0BDE8F08F602B04D018D804F09B
:1016F0006003402B9BD10023CDE9053307930423DE
:1017000005A88DF81530FFF79DFE504B93F89830E3
:10171000002B8CD14C4A138E43F40053138686E77A
:10172000702BE7E70122484B5A87DA864FF4804254
:101730005A8400221A851A8D12F00F02FBD19A8565
:101740009A8D12F00F02FBD1012394464FF40077DB
:101750004FF480763E4D3F493B481FFA83FEA0F888
:1017600064E0A0F868C021F8137021F8132025F870
:1017700023600133062BF0D100254FF40072284678
:10178000314E9FB2A6F86470A6F8680021F81320C5
:1017900021F8135001330A2BF3D19C2200212B484E
:1017A00000F01FFF338903F00703013B9BB2022BBC
:1017B0000DD8294ACDE90555D35C012207958DF84E
:1017C00015208DF8183005A8FFF73CFE2FE74FF0E5
:1017D000E023D3F8F03DDD077FF529AF00BE26E713
:1017E000194BB3F8503013F07F023FF420AF0023C1
:1017F0000521CDE905338DF80C30ADF81030ADF88A
:101800001230079306238DF80D10ADF80E2003A9B2
:10181000082206A88DF8153000F0D6FED3E714F0A4
:1018200007037FF434AF084A0721128CCDE9053352
:1018300012F0200F14BF802200228DF815108DF8B1
:101840001820079320E700BF00000940280500206A
:101850008C0009406E000940352700001400094043
:1018600096FAA6F50C22B5FA85F502FB0542137A25
:10187000DB091DD029465448FEF7A4FF90B10C2384
:1018800003FB05439A88197ADB8805A8D31A00223E
:10189000CDE9052207228DF818108DF81520079341
:1018A000FFF7D0FD012303FA05F526EA050615E743
:1018B000454B002D53D0B2F806B0AAB21A85A3F852
:1018C0006420B3F86C901FFA89F91A8D02F00F02A8
:1018D0009542FAD15A8D9104FCD55F8D0C23C7F344
:1018E0000B074F4528BF4F46BB45D84628BFB846D3
:1018F0006B43E058E218B8F1000F07D0537AFBB100
:10190000424632490190FEF782FE0198C14588BFE8
:101910004FF480422C4B88BF5A8500221A851A8DBD
:101920001207FCD10C2303FB0542ABEB0801C145B8
:10193000D18001D8BB45B5D800226B43E2509DE76A
:101940000346214900EB0802934203D10C226A436B
:10195000A350DBE791F818C003F801CBF4E7B3F824
:101960005E905F8C09F07F09C7F30B074F4528BFD6
:101970004F46B4F806B0BB45D84628BFB846B8F1C4
:10198000000F06D0627A2068A2B142465146FEF7A7
:101990003EFEC14582BF4FF480420B4B5A84ABEBF5
:1019A0000803C145E38002D8BB453FF67BAF002367
:1019B000236064E700EB0802904201D12060E8E771
:1019C000197D00F8011BF7E70000094018000940E5
:1019D000FFF7D2BD70B5FEF7C9FC1349134B0A7C63
:1019E00053F8206005461007D1F88010D3B214D404
:1019F0001A0614D4DB0614D511F4405F14BF072473
:101A00000624304600F028FE2846FEF7B5FC2146A5
:101A10003046BDE87040FEF7A3BD0424F1E705247D
:101A2000EFE70724EDE700BF00E07F40EC880020EF
:101A300038B5FEF79BFC1A4B53F82040FEF79CFC90
:101A400094F83450012D0CD1236BE3B10022042112
:101A5000204600F0F9FD08B32046BDE8384000F00C
:101A6000FBBD022D08D1256B6DB12046BDE8384085
:101A70000022402100F000BE0A4B93F8D430012B25
:101A80000CBF0325022500F0BFFD002384F834308D
:101A900029462046BDE83840FEF762BD38BD00BF8C
:101AA000EC88002000E07F40F8B5154D2846FEF791
:101AB00071FD0446F8B96B681B78F3B10123064643
:101AC00085F834300E4F32460421384600F0BCFD14
:101AD0006B6804461B7873B918224FF4805100F0EC
:101AE000A3FD2B6B04460BB10028ECD000F08CFD5D
:101AF000002C08BF04462046F8BDEE68E2E700BFB0
:101B00009C8800200D4B0E481A880E4B03EA821366
:101B10000D4A126813440D4AB3F1006F12884FEA60
:101B2000520202630A4AC0E90A234FF0000280F819
:101B3000342001D200F098BDFFF7B6BF5608002050
:101B40009C8800200080FFFF10070020588800209C
:101B500058080020F8B50023264DB0F1006F85F835
:101B6000343012D2BDE8F840B0F5803F34BF20F4E5
:101B7000FF5120F4FF414FF001021E4834BF21F015
:101B80001F0121F07F0100F047BD012320F03F003D
:101B9000A86228462B63FEF7FDFC064630BB6B6847
:101BA0001B780BB3022385F834300122124B114FFE
:101BB000A3F8E02032464021384600F05DFD6B6816
:101BC00004461B7873B919224FF4005100F02CFD24
:101BD0002B6B04460BB10028ECD000F015FD002C57
:101BE00008BF04462046F8BD6E6ADEE74FF4FA747B
:101BF000F8E700BF9C88002000E07F402DE9F04717
:101C000013780D4603F01F04012C164640F04A815C
:101C100013F060031CD152780A2A0FD00B2A40F02F
:101C20004181012940F0BA8072889F4B5A70FEF7BB
:101C3000E3FB3046BDE8F047FEF7A6BE012940F0C1
:101C4000AD800A4699493046BDE8F047FEF772BFBD
:101C5000202B40F027815378062B00F22381DFE808
:101C600003F004311C510F140F00012904D1304638
:101C7000FEF78AFE012491E00329FBD1FFF7BEFBAA
:101C80000129F7D1FEF7B8FBF1E70129F2D10A46A5
:101C900030468749FEF74EFFECE70129EAD1824D35
:101CA0002C7814F0020479D0F388402B00F2FA80EB
:101CB000718805F10C026878FEF7E2FE05F10C016F
:101CC0000246C0E70129D5D1774B1C7814F00104F6
:101CD00064D09A78022A02D0052A40F0E380F28884
:101CE000402A00F2DF8001221A717288DA80F288BD
:101CF0001A81F2881AB1032199706E49A3E706226E
:101D00009A7096E7684FB978032907D0062900F042
:101D10008F80012DAED10023FA780AE0012D0DD17C
:101D20003B79FA78002B08BF05214FF0000318BF5C
:101D300004213046BDE8F047FEF72EBF032D99D1B0
:101D40003C79002C71D04FF0040A7B78FA88012B83
:101D50003E8987F802A03BD102F50013402E4FEADE
:101D6000831833D8544B08EB06029A422ED8DFF87A
:101D700064914022FF21484600F033FC3246484639
:101D800007F10C0100F020FC72B64046FFF7E2FEBE
:101D900038B162B655462846FEF782FB2046BDE8BC
:101DA000F087033636F0030602D162B63546F2E715
:101DB000424B7608C3E90A981E6383F83400FFF7A4
:101DC00073FE62B6002808BF0025E4E70825E2E7B5
:101DD000002B0CBF4FF480334FF48013384939483F
:101DE0000B6003EB8213C3F30E03028090012BB947
:101DF00072B60B681844FFF7ADFE62B6324D334839
:101E00002B88324618442B4900F0DEFB2B881E44F9
:101E1000B6B2B6F5004F2E8005D172B6FFF772FE4E
:101E200062B600232B800020B6E70523BB7021E7B4
:101E3000012D09D13B79FA78002B08BF02214FF020
:101E4000000318BF072174E7032D7FF413AF3C791B
:101E500034B30723BB707B78012B08D01A4D2B8835
:101E60002BB172B6FFF74EFE62B600232B80002026
:101E70000146124DFEF714FB6B68286093F91100C0
:101E8000884201DBFEF75AFB114E31766B6893F9FD
:101E90001300002801DBFEF751FB002333757DE7BB
:101EA0000223C3E7002479E7C4060020C50600200A
:101EB000C6060020D0060020002000089C880020D4
:101EC00010070020560800205888002058080020DD
:101ED00000E07F405C8800202DE99F484FF47002AD
:101EE000C14BC24DC3F888204AF203529D60C04BDB
:101EF000A3F8FE230122A3F50053A3F80421B3F8AD
:101F0000040180B20028FAD101244FF40046B949F7
:101F1000B94AA3F80041B94BB94FC3E90012B94A15
:101F20001861C3E90262B84AC3E90572FEF7ACF969
:101F30001022AF4B83F81324092283F8A22083F8E0
:101F4000804483F8320093F83C201207FBD542F618
:101F5000017243F20111A3F848200022A44883F83B
:101F60004A20198583F82A2090F83C309B06FBD53F
:101F70000122A64B83F81C21A54B0362052380F8A0
:101F80002630FEF781F9F122A24B1A7300221A7251
:101F9000F0221A7390F8743043F0400380F87430E4
:101FA000934B93F87420D209FBD0022283F86C2063
:101FB000462283F87420062283F8742093F8744034
:101FC000E409FBD14FF42542A3F8FE232B68A3F5C7
:101FD000806383F30A889048904A2146121A00F0E1
:101FE00000FB8F488F4A9049121A00F0EDFA8F4E8D
:101FF0008F4DAD1BAD10A54200F31A820024FEF7F1
:1020000043F98C4B012083F82840FEF787F9784B81
:10201000894E83F8BB44FEF755F90320FEF77EF99D
:1020200023464FF6FF7103F108020133092B26F80E
:102030001210F8D10320FEF745F90320FEF76EF9E0
:102040006FF0FF027D4B7E4C9A64FF210C2201A8A9
:1020500000F0C7FA25460023012735F8022B6AB1A4
:1020600004A95A0901EB820203F01F0107FA01F0EB
:1020700052F80C1C21EA000142F80C1C0133602BC1
:10208000EBD101996D4A6F4B1167C3F88012029929
:1020900003205167C3F8841203999167C3F888122B
:1020A000FEF710F90023684A03F1C00134F8020B6F
:1020B0000133602B42F82100F6D162B6634F4FF036
:1020C000000BB946624B634A494C1A604FF0000856
:1020D000DFF894A13AF8022BB9F80410914219D113
:1020E0000123D9F8002003FA08F502F0B852B2F142
:1020F000807FEDB294F8BB2440F09F812A4209D141
:102100001846FEF70BF994F8BB24154384F8BB542A
:10211000FEF7D8F808F10108B8F1030FDAD10BF196
:10212000010BBBF1030F09F10809CFD1EFF31081C7
:10213000012383F31088484A136813B9F3704023CE
:10214000F37013680133136081F31088002443484F
:10215000B9883D680B0A15F4803FC9B24FEA0313F2
:102160000BD003EB010C50F82CE06FF3104E40F84D
:102170002CE025F4803E40F82CE001340B44032C85
:1021800040F8235007F10807E2D1EFF31081012353
:1021900083F31088136813B11368013B136013684D
:1021A00013B9F3708023F37081F310884FF47A72BF
:1021B0002B4E3368B3FBF2F3013BB3F1807F0AD2BD
:1021C0004FF0E022F0215361074B83F823100023E6
:1021D0009361072313614FF08072224B9A64A3F539
:1021E000C423D3F8001541E000ED00E0000000003A
:1021F00000E00140002D310100127A00E8040020C7
:1022000000C2EB0B0024F40000B0710B00C00140D1
:10221000211202210020004008050020C08A002071
:1022200000000020E8040020B0280000E80400209E
:10223000E804002000300840000D08400080004005
:10224000C027000000E100E0006000405C270000C3
:10225000B08A002054524F50E888002000080840FF
:10226000080500200000084088280000B54A914277
:1022700040F0EE804AF20252A3F8FE230022C3F897
:1022800000254FF42542A3F8FE23AF48AF4BB04CD6
:10229000436000232376237580F834300123AD4D4D
:1022A00085F816342B6A31682D6AC3F3026201FA8D
:1022B00002F2C3F30273C5F30265DA4001FA05F3D3
:1022C000A549EB408A423ED9A44902F5742202F2A4
:1022D0003F22B2FBF1F203F5742303F23F23B3FB79
:1022E000F1F343F6B85102F5F05292B2A4F8E420AB
:1022F00006225943B1FBF2F1816040F6D86159439F
:10230000B1FBF2F1C1605900B1FBF2F1016154215E
:102310005943B1FBF2F1416191495943B1FBF2F1EB
:10232000816144F250615943B1FBF2F141628D4940
:102330005943B1FBF2F101628B494B43B3FBF2F31A
:10234000C3618A4B03608048894C00F085F9012203
:1023500002217D4800F070F92378FF2B40F0D080F7
:102360003C220021834800F03CF90022824B1A7085
:10237000824BDA819A81824A1360824B23B1824870
:1023800000E000BF814B186000257F4E804FDFF8D2
:10239000FC813278EBB2934240F2A58000227D4965
:1023A00022704B6823F400634B607B497B4B81F8C0
:1023B00098201A8842F480621A801A885005FCD549
:1023C0001A8840206FF345121A801A886FF386121C
:1023D0001A801A8842F001021A800522C3F8F02000
:1023E000D3F800246FF30412C3F80024B3F85E207E
:1023F00060F30602A3F85E200022A3F8402091F8C3
:1024000098300020934214BF4FF47D424FF45D4258
:10241000624B1A8601225A87DA86B3F840201206E8
:1024200042BF1A8842F010021A80FDF703FF67E0EE
:1024300056F8043B98470134DDE52A423FF46AAE82
:102440000120FDF76BFF94F8BB2422EA05055DE649
:1024500093F81014CF0709D44AF20251A3F8FE13DF
:10246000C3F800254FF42542A3F8FE234C4A136815
:10247000B3F5FA7FFBD34AF2025400214FF425450D
:102480004FF48032334BA3F8FE43C3F80015A3F892
:10249000FE53106800F07F40B0F1005F7FF4F5AEAE
:1024A000A3F8FE43EFF31087012080F3108839482A
:1024B000446844F400644460406887F31088A3F8DB
:1024C000FE5381F30A8872B6BFF34F8FBFF36F8F4D
:1024D0004FF0E0231961C3F8082D136883F30888CF
:1024E00053689847D1E665D2D8F8002012EB431321
:1024F00063D14FF0E023D3F8F03DDD0700D500BEF7
:10250000274E284D284F2378FF2B01D0FEF75CFB88
:1025100032682B683968D21A8A42F4D3234A0B44B2
:102520002B60137883F00103002B13700BBF4FF463
:102530008072002200234FF4807343EA02431C4A56
:102540009364E0E7358173079C880020AC27000086
:1025500000E07F4000E00140FF083D0040420F00E6
:1025600038AF040080DE0F00A0F703004E45504F47
:10257000D00400205407002054080020C00400208C
:102580009007002000000000100500200C0500202E
:102590003C270000004008402805002000000940BA
:1025A000BC8A0020B88A0020D4040020AD8A002014
:1025B000000008409B1A07EB43135B680135002BB2
:1025C00097D09847E5E600BF0A44431E914200D1E8
:1025D000704710B511F8014B914203F8014FF9D142
:1025E00010BD02440346934200D1704703F8011B1B
:1025F000F9E7034613F8012B002AFBD1181A01381A
:102600007047FFFFFFFFFFFF01B40248844601BC93
:10261000604700BF0100002001B40248844601BCAD
:10262000604700BF7703002001B40248844601BC24
:10263000604700BF1D02002001B40248844601BC6F
:10264000604700BF2504002001B40248844601BC55
:10265000604700BF7501002001B40248844601BCF8
:10266000604700BFE100002001B40248844601BC7D
:10267000604700BF3D03002001B40248844601BC0E
:10268000604700BF3501002000000504342E352EC0
:1026900030004275696C7420776974682052656EE9
:1026A0006573617320416476616E63656420466C76
:1026B000657869626C6520536F6674776172652016
:1026C0005061636B6167652076657273696F6E2018
:1026D000342E352E300041726475696E6F00564B92
:1026E0002D5241344D322D4E414E4F20444655001F
:1026F00040436F6465466C617368202F30783030DA
:102700003030303030302F382A384B612C31342A79
:1027100033324B67004044617461466C61736820DA
:102720002F307830383030303030302F3132382A56
:1027300036344267000100020904FFFF0000000078
:10274000190400001F040000090400002504000013
:10275000FD1B00000000000000000000040000005D
:10276000080200000000000007020000000C011336
:10277000070400000902240001010080320904005E
:102780000000FE0102040904000100FE0102050927
:102790002107E8034000010112010002000000408F
:1027A00041236903000101020301FFFF0000000053
:1027B000D50400000000000000000000020702082D
:1027C0006D006E006B006C00000000000000310026
:1027D00030000000000000000000000000000000C9
:1027E00000000000000000000000000000000000E9
:1027F00000000000000000000000000000000000D9
:1028000000000000000000000000000000000000C8
:1028100000000000000000000000000000000000B8
:1028200000000000000000000000000000000000A8
:102830000000000000000000000000000000000098
:102840000000000000000000000000000000000088
:102850000000000000000000000000000000000078
:102860000000000000000000000000000000000068
:102870000000000000000000000000000000000058
:102880000100020008001000020403040404FFFF1A
:10289000000009400000000038270000D626000094
:1028A000DE2600006C8A0020F026000015270000BC
:1028B0004FF42A4110B500204FF49644104AB2F864
:1028C0008430A2F884109BB2B2F8841089B289B91E
:1028D000012B0ED14DF60111A2F84410094AA2F8BD
:1028E0000431B2F804319BB2002BFAD10123A2F8D3
:1028F000003110BD002C08BF4FF4FA70013CE3E733
:1029000000E07F4000C001404FF49643B32282B004
:1029100001930C4B1A700C4AD2F880301B0408D576
:10292000137C40F2F51013F0100F08BF002002B026
:102930007047019B1BB1019B013B0193ECE7142005
:10294000F5E700BF00007E4000E07F404FF4964373
:10295000502282B001930C4B1A700C4AD2F880308E
:102960001B0408D5137C40F2F51013F0100F08BFBC
:10297000002002B07047019B1BB1019B013B0193FA
:10298000ECE71420F5E700BF00007E4000E07F4048
:1029900038B5436805461A7842B193F9110000F042
:1029A000CFF96B6893F9130000F0CAF90C4BB3F838
:1029B00084309BB213B9284600F0CAF9FFF7A4FF90
:1029C0000446FFF7C3FF002C08BF0446FFF770FF63
:1029D00000239C4218BF204685F8343038BD00BF24
:1029E00000E07F4030B50D4C836A0D4D23632023FA
:1029F0002B70D0232B70836A1944036B8162013BD7
:102A00000363104612B930BD30B10138D4F88030BC
:102A10001B04F9D50020F6E71420F4E700E07F401E
:102A200000007E40F7B50446154622B9436893F985
:102A3000110000F085F9E820E36A214A4E0813638B
:102A4000204BC1F347011870197000218E4210D13C
:102A5000D0211970002D2CD1636893F91130012217
:102A6000590903F01F0302FA03F3174A42F8213011
:102A700019E020690190A06A00881880D2F88000CF
:102A800040050AD4A06A01310230A062E06A023037
:102A9000E062206B01382063D8E70198471E019758
:102AA0000028EBD11425284603B0F0BD002DF9D045
:102AB000013DD2F880301B04F8D50025F3E700BFB4
:102AC00000E07F4000007E4000E100E010B50E4BCA
:102AD0001C7CE40609D5D3F88040640402D51C7C34
:102AE00000241C7440F2F51400E00024D3F8803078
:102AF0000B4218BF144620B90CB1FFF705FF204662
:102B000010BD0446F9E700BF00E07F40402213B546
:102B1000836910480193104B01631A7008221A70E0
:102B200000220E4931F8024B0132082A1C80F9D1EB
:102B3000D0221A70D0F880301B0402D5002002B0D9
:102B400010BD019B1BB1019B013B0193F2E71420D7
:102B5000F5E700BF00E07F4000007E40D804002081
:102B60006FEA415110B56FEA51514FF6FF74074BB0
:102B700042EAC03040F4F0401C805C80D8809980EC
:102B80001C815C819C81DC8110BD00BFD8040020C9
:102B90004FF4964307B50193436801461A7842B152
:102BA00093F9110000F0CCF84B6893F9130000F092
:102BB000C7F84FF459430C4AA2F844304AF60123AF
:102BC000A2F88430B2F884309BB2012B03D10020EC
:102BD00003B05DF804FB019B1BB1019B013B01931A
:102BE000F0E74FF4FA70F3E700E07F4038B50546B0
:102BF000FFF7CEFF044668B1204638BD6CB980218E
:102C0000AA682846FFF70EFF18224FF4A041FFF7ED
:102C10005DFF04462B6B002BF0D1FFF749FE002C23
:102C200008BF0446E8E738B5816202630546FFF74E
:102C3000AFFF044650B90122114BA3F8E0202B6BE3
:102C400033B9FFF735FE002C08BF0446204638BDD7
:102C5000002CF6D1D5E90723A96A2846B1F5803FB3
:102C60002ABF1A464FF400514FF40041FFF7BAFE55
:102C700019224FF4C041FFF729FF0446DFE700BFE8
:102C800000E07F402DE9F041104B0546D3F8DC60B1
:102C90000F469046FFF77CFFF60F044698B94FEABF
:102CA00058323046790BFFF75BFF09492846FFF79A
:102CB0002DFF21461822FFF709FF0446FFF7F8FD14
:102CC000002C08BF04462046BDE8F08100E07F40AC
:102CD00030A10001F8B507460D461646FFF758FF2C
:102CE000044650B95EB1124B45F4CC45A3F8E85008
:102CF000FFF7DEFD002C08BF04462046F8BD102279
:102D0000FF210C4800F02CF847F6FF7215F0010F78
:102D10004FF6FF7318BF1346064A0749D38038465B
:102D2000FFF7F4FE21461822FFF7D0FE0446DFE746
:102D300000E07F40D804002030A100010000000026
:102D400001B40248844601BC604700BF3D05000055
:102D500001B40248844601BC604700BF95050000ED
:102D600001B40248844601BC604700BFE32500006F
:102D7000E50300009407002010000C000000000094
:102D8000FF000000FA000000FFFF0000000000004C
:082D900000000000000000003B
:020000040100F9
:10A10000FFFFFFFFFFFFFFFFFFFFFFFFFFFFFFFF5F
:04A13400FFFFFFFF2B
:10A20000FFFDFFFFFFFFFFFFFFFFFFFFFFFFFFFF60
:10A21000FFFFFFFFFFFFFFFFFFFFFFFFFFFFFFFF4E
:10A22000FFFFFFFFFFFFFFFFFFFFFFFFFFFFFFFF3E
:10A23000FFFFFFFFFFFFFFFFFFFFFFFFFFFFFFFF2E
:10A24000FFFFFFFFFFFFFFFFFFFFFFFFFFFFFFFF1E
:10A25000FFFFFFFFFFFFFFFFFFFFFFFFFFFFFFFF0E
:10A26000FFFFFFFFFFFFFFFFFFFFFFFFFFFFFFFFFE
:10A27000FFFFFFFFFFFFFFFFFFFFFFFFFFFFFFFFEE
:10A28000F8F8FFFFFFFFFFFFFFFFFFFFFFFFFFFFEC
:10A29000FFFFFFFFFFFFFFFFFFFFFFFFFFFFFFFFCE
:10A2A000FFFFFFFFFFFFFFFFFFFFFFFFFFFFFFFFBE
:10A2B000FFFFFFFFFFFFFFFFFFFFFFFFFFFFFFFFAE
:10A2C000FFFFFFFFFFFFFFFFFFFFFFFFFFFFFFFF9E
:0400000300001ED902
:00000001FF
